{
  "contractName": "Atola",
  "abi": [
    {
      "constant": true,
      "inputs": [
        {
          "name": "",
          "type": "uint256"
        }
      ],
      "name": "machineAddressesArr",
      "outputs": [
        {
          "name": "",
          "type": "address"
        }
      ],
      "payable": false,
      "stateMutability": "view",
      "type": "function",
      "signature": "0x0c1ad560"
    },
    {
      "constant": true,
      "inputs": [
        {
          "name": "",
          "type": "uint256"
        }
      ],
      "name": "supportedTokensArr",
      "outputs": [
        {
          "name": "",
          "type": "address"
        }
      ],
      "payable": false,
      "stateMutability": "view",
      "type": "function",
      "signature": "0xd219384a"
    },
    {
      "inputs": [
        {
          "name": "_baseCurrency",
          "type": "address"
        },
        {
          "name": "_baseExchange",
          "type": "address"
        }
      ],
      "payable": false,
      "stateMutability": "nonpayable",
      "type": "constructor",
      "signature": "constructor"
    },
    {
      "payable": true,
      "stateMutability": "payable",
      "type": "fallback"
    },
    {
      "anonymous": false,
      "inputs": [
        {
          "indexed": false,
          "name": "previousOwner",
          "type": "address"
        },
        {
          "indexed": false,
          "name": "newOwner",
          "type": "address"
        }
      ],
      "name": "OwnershipTransferred",
      "type": "event",
      "signature": "0x8be0079c531659141344cd1fd0a4f28419497f9722a3daafe3b4186f6b6457e0"
    },
    {
      "anonymous": false,
      "inputs": [
        {
          "indexed": false,
          "name": "customerAddress",
          "type": "address"
        },
        {
          "indexed": false,
          "name": "fiatAmount",
          "type": "uint256"
        },
        {
          "indexed": false,
          "name": "cryptoAmount",
          "type": "uint256"
        }
      ],
      "name": "CryptoPurchase",
      "type": "event",
      "signature": "0x3b42f59181130f257812e3327b330c4940f35ea5ae43ce9f3af7b570b14cb184"
    },
    {
      "anonymous": false,
      "inputs": [
        {
          "indexed": false,
          "name": "customerAddress",
          "type": "address"
        },
        {
          "indexed": false,
          "name": "cryptoAmount",
          "type": "uint256"
        },
        {
          "indexed": false,
          "name": "fiatAmount",
          "type": "uint256"
        }
      ],
      "name": "CryptoSale",
      "type": "event",
      "signature": "0xac6fef5f430d732a14890475fe36d35da61c7745fbcb63fb9892c468dbe941ec"
    },
    {
      "anonymous": false,
      "inputs": [
        {
          "indexed": false,
          "name": "customerAddress",
          "type": "address"
        },
        {
          "indexed": false,
          "name": "cryptoAmount",
          "type": "uint256"
        }
      ],
      "name": "Refund",
      "type": "event",
      "signature": "0xbb28353e4598c3b9199101a66e0989549b659a59a54d2c27fbb183f1932c8e6d"
    },
    {
      "anonymous": false,
      "inputs": [
        {
          "indexed": false,
          "name": "customerAddress",
          "type": "address"
        },
        {
          "indexed": false,
          "name": "cryptoAmount",
          "type": "uint256"
        }
      ],
      "name": "EthRecieved",
      "type": "event",
      "signature": "0x14173446b81b9fbe9074deccf4840096e314fed524820e9705cf8687c6416d02"
    },
    {
      "constant": false,
      "inputs": [
        {
          "name": "newOwner",
          "type": "address"
        }
      ],
      "name": "transferOwnership",
      "outputs": [],
      "payable": false,
      "stateMutability": "nonpayable",
      "type": "function",
      "signature": "0xf2fde38b"
    },
    {
      "constant": false,
      "inputs": [
        {
          "name": "_machineAddress",
          "type": "address"
        }
      ],
      "name": "addMachine",
      "outputs": [],
      "payable": false,
      "stateMutability": "nonpayable",
      "type": "function",
      "signature": "0xef56731f"
    },
    {
      "constant": false,
      "inputs": [
        {
          "name": "_machineAddress",
          "type": "address"
        }
      ],
      "name": "removeMachine",
      "outputs": [],
      "payable": false,
      "stateMutability": "nonpayable",
      "type": "function",
      "signature": "0x6b10ea6a"
    },
    {
      "constant": true,
      "inputs": [
        {
          "name": "_index",
          "type": "uint256"
        }
      ],
      "name": "getMachine",
      "outputs": [
        {
          "name": "",
          "type": "address"
        },
        {
          "name": "",
          "type": "uint256"
        },
        {
          "name": "",
          "type": "uint256"
        }
      ],
      "payable": false,
      "stateMutability": "view",
      "type": "function",
      "signature": "0x6d3fac54"
    },
    {
      "constant": false,
      "inputs": [
        {
          "name": "_machineAddress",
          "type": "address"
        },
        {
          "name": "_buyFee",
          "type": "uint256"
        },
        {
          "name": "_sellFee",
          "type": "uint256"
        }
      ],
      "name": "modifyBtm",
      "outputs": [],
      "payable": false,
      "stateMutability": "nonpayable",
      "type": "function",
      "signature": "0xebc8f190"
    },
    {
      "constant": false,
      "inputs": [
        {
          "name": "_token",
          "type": "address"
        }
      ],
      "name": "addToken",
      "outputs": [],
      "payable": false,
      "stateMutability": "nonpayable",
      "type": "function",
      "signature": "0xd48bfca7"
    },
    {
      "constant": false,
      "inputs": [
        {
          "name": "_tokenAddress",
          "type": "address"
        }
      ],
      "name": "removeToken",
      "outputs": [],
      "payable": false,
      "stateMutability": "nonpayable",
      "type": "function",
      "signature": "0x5fa7b584"
    },
    {
      "constant": false,
      "inputs": [
        {
          "name": "_amountFiat",
          "type": "uint256"
        },
        {
          "name": "_tolerance",
          "type": "uint256"
        },
        {
          "name": "_userAddress",
          "type": "address"
        }
      ],
      "name": "fiatToEth",
      "outputs": [
        {
          "name": "",
          "type": "bool"
        }
      ],
      "payable": false,
      "stateMutability": "nonpayable",
      "type": "function",
      "signature": "0x6f8c459e"
    },
    {
      "constant": false,
      "inputs": [
        {
          "name": "_amountFiat",
          "type": "uint256"
        },
        {
          "name": "_userAddress",
          "type": "address"
        }
      ],
      "name": "fiatToBaseTokens",
      "outputs": [
        {
          "name": "",
          "type": "bool"
        }
      ],
      "payable": false,
      "stateMutability": "nonpayable",
      "type": "function",
      "signature": "0x8f611eeb"
    },
    {
      "constant": false,
      "inputs": [
        {
          "name": "_amount",
          "type": "uint256"
        }
      ],
      "name": "withdrawEth",
      "outputs": [],
      "payable": false,
      "stateMutability": "nonpayable",
      "type": "function",
      "signature": "0xc311d049"
    },
    {
      "constant": false,
      "inputs": [
        {
          "name": "_amount",
          "type": "uint256"
        }
      ],
      "name": "withdrawBaseTokens",
      "outputs": [],
      "payable": false,
      "stateMutability": "nonpayable",
      "type": "function",
      "signature": "0xbc360f49"
    },
    {
      "constant": false,
      "inputs": [
        {
          "name": "token",
          "type": "address"
        },
        {
          "name": "_amount",
          "type": "uint256"
        }
      ],
      "name": "withdrawTokens",
      "outputs": [],
      "payable": false,
      "stateMutability": "nonpayable",
      "type": "function",
      "signature": "0x06b091f9"
    },
    {
      "constant": true,
      "inputs": [],
      "name": "tokenBalanceAmount",
      "outputs": [
        {
          "name": "",
          "type": "uint256"
        }
      ],
      "payable": false,
      "stateMutability": "view",
      "type": "function",
      "signature": "0xe3ae37b0"
    },
    {
      "constant": true,
      "inputs": [],
      "name": "ethBalanceAmount",
      "outputs": [
        {
          "name": "",
          "type": "uint256"
        }
      ],
      "payable": false,
      "stateMutability": "view",
      "type": "function",
      "signature": "0x22cc73f1"
    },
    {
      "constant": false,
      "inputs": [
        {
          "name": "_user",
          "type": "address"
        },
        {
          "name": "_amount",
          "type": "uint256"
        }
      ],
      "name": "refund",
      "outputs": [],
      "payable": false,
      "stateMutability": "nonpayable",
      "type": "function",
      "signature": "0x410085df"
    },
    {
      "constant": false,
      "inputs": [
        {
          "name": "_user",
          "type": "address"
        },
        {
          "name": "_amountFiat",
          "type": "uint256"
        }
      ],
      "name": "ethToFiat",
      "outputs": [],
      "payable": false,
      "stateMutability": "nonpayable",
      "type": "function",
      "signature": "0x4a6a038d"
    },
    {
      "constant": true,
      "inputs": [
        {
          "name": "_user",
          "type": "address"
        }
      ],
      "name": "amountForAddress",
      "outputs": [
        {
          "name": "",
          "type": "uint256"
        }
      ],
      "payable": false,
      "stateMutability": "view",
      "type": "function",
      "signature": "0x2a861533"
    }
  ],
  "bytecode": "0x608060405234801561001057600080fd5b506040516040806124798339810180604052604081101561003057600080fd5b810190808051906020019092919080519060200190929190505050336000806101000a81548173ffffffffffffffffffffffffffffffffffffffff021916908373ffffffffffffffffffffffffffffffffffffffff16021790555081600160006101000a81548173ffffffffffffffffffffffffffffffffffffffff021916908373ffffffffffffffffffffffffffffffffffffffff16021790555080600260006101000a81548173ffffffffffffffffffffffffffffffffffffffff021916908373ffffffffffffffffffffffffffffffffffffffff160217905550505061235b8061011e6000396000f3fe608060405260043610610107576000357c0100000000000000000000000000000000000000000000000000000000900463ffffffff16806306b091f9146101c15780630c1ad5601461021c57806322cc73f1146102975780632a861533146102c2578063410085df146103275780634a6a038d146103825780635fa7b584146103dd5780636b10ea6a1461042e5780636d3fac541461047f5780636f8c459e146105085780638f611eeb14610585578063bc360f49146105f8578063c311d04914610633578063d219384a1461066e578063d48bfca7146106e9578063e3ae37b01461073a578063ebc8f19014610765578063ef56731f146107ca578063f2fde38b1461081b575b34600960003373ffffffffffffffffffffffffffffffffffffffff1673ffffffffffffffffffffffffffffffffffffffff168152602001908152602001600020600082825401925050819055507f14173446b81b9fbe9074deccf4840096e314fed524820e9705cf8687c6416d023334604051808373ffffffffffffffffffffffffffffffffffffffff1673ffffffffffffffffffffffffffffffffffffffff1681526020018281526020019250505060405180910390a1005b3480156101cd57600080fd5b5061021a600480360360408110156101e457600080fd5b81019080803573ffffffffffffffffffffffffffffffffffffffff1690602001909291908035906020019092919050505061086c565b005b34801561022857600080fd5b506102556004803603602081101561023f57600080fd5b81019080803590602001909291905050506109d1565b604051808273ffffffffffffffffffffffffffffffffffffffff1673ffffffffffffffffffffffffffffffffffffffff16815260200191505060405180910390f35b3480156102a357600080fd5b506102ac610a0f565b6040518082815260200191505060405180910390f35b3480156102ce57600080fd5b50610311600480360360208110156102e557600080fd5b81019080803573ffffffffffffffffffffffffffffffffffffffff169060200190929190505050610a89565b6040518082815260200191505060405180910390f35b34801561033357600080fd5b506103806004803603604081101561034a57600080fd5b81019080803573ffffffffffffffffffffffffffffffffffffffff16906020019092919080359060200190929190505050610b1f565b005b34801561038e57600080fd5b506103db600480360360408110156103a557600080fd5b81019080803573ffffffffffffffffffffffffffffffffffffffff16906020019092919080359060200190929190505050610ce8565b005b3480156103e957600080fd5b5061042c6004803603602081101561040057600080fd5b81019080803573ffffffffffffffffffffffffffffffffffffffff169060200190929190505050611078565b005b34801561043a57600080fd5b5061047d6004803603602081101561045157600080fd5b81019080803573ffffffffffffffffffffffffffffffffffffffff1690602001909291905050506110e3565b005b34801561048b57600080fd5b506104b8600480360360208110156104a257600080fd5b810190808035906020019092919050505061114e565b604051808473ffffffffffffffffffffffffffffffffffffffff1673ffffffffffffffffffffffffffffffffffffffff168152602001838152602001828152602001935050505060405180910390f35b34801561051457600080fd5b5061056b6004803603606081101561052b57600080fd5b810190808035906020019092919080359060200190929190803573ffffffffffffffffffffffffffffffffffffffff16906020019092919050505061121f565b604051808215151515815260200191505060405180910390f35b34801561059157600080fd5b506105de600480360360408110156105a857600080fd5b8101908080359060200190929190803573ffffffffffffffffffffffffffffffffffffffff1690602001909291905050506115cd565b604051808215151515815260200191505060405180910390f35b34801561060457600080fd5b506106316004803603602081101561061b57600080fd5b810190808035906020019092919050505061183d565b005b34801561063f57600080fd5b5061066c6004803603602081101561065657600080fd5b81019080803590602001909291905050506119bd565b005b34801561067a57600080fd5b506106a76004803603602081101561069157600080fd5b8101908080359060200190929190505050611a83565b604051808273ffffffffffffffffffffffffffffffffffffffff1673ffffffffffffffffffffffffffffffffffffffff16815260200191505060405180910390f35b3480156106f557600080fd5b506107386004803603602081101561070c57600080fd5b81019080803573ffffffffffffffffffffffffffffffffffffffff169060200190929190505050611ac1565b005b34801561074657600080fd5b5061074f611bd0565b6040518082815260200191505060405180910390f35b34801561077157600080fd5b506107c86004803603606081101561078857600080fd5b81019080803573ffffffffffffffffffffffffffffffffffffffff1690602001909291908035906020019092919080359060200190929190505050611d49565b005b3480156107d657600080fd5b50610819600480360360208110156107ed57600080fd5b81019080803573ffffffffffffffffffffffffffffffffffffffff169060200190929190505050611e31565b005b34801561082757600080fd5b5061086a6004803603602081101561083e57600080fd5b81019080803573ffffffffffffffffffffffffffffffffffffffff169060200190929190505050611f40565b005b6000809054906101000a900473ffffffffffffffffffffffffffffffffffffffff1673ffffffffffffffffffffffffffffffffffffffff163373ffffffffffffffffffffffffffffffffffffffff161415156108c757600080fd5b60008290508073ffffffffffffffffffffffffffffffffffffffff1663a9059cbb6000809054906101000a900473ffffffffffffffffffffffffffffffffffffffff16846040518363ffffffff167c0100000000000000000000000000000000000000000000000000000000028152600401808373ffffffffffffffffffffffffffffffffffffffff1673ffffffffffffffffffffffffffffffffffffffff16815260200182815260200192505050602060405180830381600087803b15801561099057600080fd5b505af11580156109a4573d6000803e3d6000fd5b505050506040513d60208110156109ba57600080fd5b810190808051906020019092919050505050505050565b6004818154811015156109e057fe5b906000526020600020016000915054906101000a900473ffffffffffffffffffffffffffffffffffffffff1681565b60008060009054906101000a900473ffffffffffffffffffffffffffffffffffffffff1673ffffffffffffffffffffffffffffffffffffffff163373ffffffffffffffffffffffffffffffffffffffff16141515610a6c57600080fd5b3073ffffffffffffffffffffffffffffffffffffffff1631905090565b600080600560003373ffffffffffffffffffffffffffffffffffffffff1673ffffffffffffffffffffffffffffffffffffffff16815260200190815260200160002054111515610ad857600080fd5b600960008373ffffffffffffffffffffffffffffffffffffffff1673ffffffffffffffffffffffffffffffffffffffff168152602001908152602001600020549050919050565b8173ffffffffffffffffffffffffffffffffffffffff163373ffffffffffffffffffffffffffffffffffffffff16141515610b5957600080fd5b80600960008473ffffffffffffffffffffffffffffffffffffffff1673ffffffffffffffffffffffffffffffffffffffff16815260200190815260200160002054111515610ba657600080fd5b80600960008473ffffffffffffffffffffffffffffffffffffffff1673ffffffffffffffffffffffffffffffffffffffff168152602001908152602001600020600082825403925050819055508173ffffffffffffffffffffffffffffffffffffffff166108fc600960008573ffffffffffffffffffffffffffffffffffffffff1673ffffffffffffffffffffffffffffffffffffffff168152602001908152602001600020549081150290604051600060405180830381858888f19350505050158015610c78573d6000803e3d6000fd5b507fbb28353e4598c3b9199101a66e0989549b659a59a54d2c27fbb183f1932c8e6d8282604051808373ffffffffffffffffffffffffffffffffffffffff1673ffffffffffffffffffffffffffffffffffffffff1681526020018281526020019250505060405180910390a15050565b6000600560003373ffffffffffffffffffffffffffffffffffffffff1673ffffffffffffffffffffffffffffffffffffffff16815260200190815260200160002054111515610d3657600080fd5b612710600860003373ffffffffffffffffffffffffffffffffffffffff1673ffffffffffffffffffffffffffffffffffffffff16815260200190815260200160002054101515610d8557600080fd5b6000612710600860003373ffffffffffffffffffffffffffffffffffffffff1673ffffffffffffffffffffffffffffffffffffffff168152602001908152602001600020548302811515610dd557fe5b0490506000600260009054906101000a900473ffffffffffffffffffffffffffffffffffffffff16905060008173ffffffffffffffffffffffffffffffffffffffff16630b573638600960008873ffffffffffffffffffffffffffffffffffffffff1673ffffffffffffffffffffffffffffffffffffffff1681526020019081526020016000205485870142896040518563ffffffff167c0100000000000000000000000000000000000000000000000000000000028152600401808481526020018381526020018273ffffffffffffffffffffffffffffffffffffffff1673ffffffffffffffffffffffffffffffffffffffff16815260200193505050506020604051808303818588803b158015610eed57600080fd5b505af1158015610f01573d6000803e3d6000fd5b50505050506040513d6020811015610f1857600080fd5b8101908080519060200190929190505050905080600960008773ffffffffffffffffffffffffffffffffffffffff1673ffffffffffffffffffffffffffffffffffffffff168152602001908152602001600020600082825403925050819055508473ffffffffffffffffffffffffffffffffffffffff166108fc600960008873ffffffffffffffffffffffffffffffffffffffff1673ffffffffffffffffffffffffffffffffffffffff168152602001908152602001600020549081150290604051600060405180830381858888f19350505050158015610ffd573d6000803e3d6000fd5b507fac6fef5f430d732a14890475fe36d35da61c7745fbcb63fb9892c468dbe941ec858286604051808473ffffffffffffffffffffffffffffffffffffffff1673ffffffffffffffffffffffffffffffffffffffff168152602001838152602001828152602001935050505060405180910390a15050505050565b6000809054906101000a900473ffffffffffffffffffffffffffffffffffffffff1673ffffffffffffffffffffffffffffffffffffffff163373ffffffffffffffffffffffffffffffffffffffff161415156110d357600080fd5b6110e060036006836120d2565b50565b6000809054906101000a900473ffffffffffffffffffffffffffffffffffffffff1673ffffffffffffffffffffffffffffffffffffffff163373ffffffffffffffffffffffffffffffffffffffff1614151561113e57600080fd5b61114b60046005836120d2565b50565b60008060008060048581548110151561116357fe5b9060005260206000200160009054906101000a900473ffffffffffffffffffffffffffffffffffffffff16905080600760008373ffffffffffffffffffffffffffffffffffffffff1673ffffffffffffffffffffffffffffffffffffffff16815260200190815260200160002054600860008473ffffffffffffffffffffffffffffffffffffffff1673ffffffffffffffffffffffffffffffffffffffff16815260200190815260200160002054935093509350509193909250565b600080600560003373ffffffffffffffffffffffffffffffffffffffff1673ffffffffffffffffffffffffffffffffffffffff1681526020019081526020016000205411151561126e57600080fd5b612710600760003373ffffffffffffffffffffffffffffffffffffffff1673ffffffffffffffffffffffffffffffffffffffff168152602001908152602001600020541015156112bd57600080fd5b6000612710600760003373ffffffffffffffffffffffffffffffffffffffff1673ffffffffffffffffffffffffffffffffffffffff16815260200190815260200160002054860281151561130d57fe5b049050600160009054906101000a900473ffffffffffffffffffffffffffffffffffffffff1673ffffffffffffffffffffffffffffffffffffffff1663095ea7b3600260009054906101000a900473ffffffffffffffffffffffffffffffffffffffff168388036040518363ffffffff167c0100000000000000000000000000000000000000000000000000000000028152600401808373ffffffffffffffffffffffffffffffffffffffff1673ffffffffffffffffffffffffffffffffffffffff16815260200182815260200192505050602060405180830381600087803b1580156113f957600080fd5b505af115801561140d573d6000803e3d6000fd5b505050506040513d602081101561142357600080fd5b8101908080519060200190929190505050506000600260009054906101000a900473ffffffffffffffffffffffffffffffffffffffff16905060008173ffffffffffffffffffffffffffffffffffffffff16637237e0318489038842896040518563ffffffff167c0100000000000000000000000000000000000000000000000000000000028152600401808581526020018481526020018381526020018273ffffffffffffffffffffffffffffffffffffffff1673ffffffffffffffffffffffffffffffffffffffff168152602001945050505050602060405180830381600087803b15801561151357600080fd5b505af1158015611527573d6000803e3d6000fd5b505050506040513d602081101561153d57600080fd5b810190808051906020019092919050505090507f3b42f59181130f257812e3327b330c4940f35ea5ae43ce9f3af7b570b14cb184858883604051808473ffffffffffffffffffffffffffffffffffffffff1673ffffffffffffffffffffffffffffffffffffffff168152602001838152602001828152602001935050505060405180910390a15050509392505050565b600080600560003373ffffffffffffffffffffffffffffffffffffffff1673ffffffffffffffffffffffffffffffffffffffff1681526020019081526020016000205411151561161c57600080fd5b612710600760003373ffffffffffffffffffffffffffffffffffffffff1673ffffffffffffffffffffffffffffffffffffffff1681526020019081526020016000205410151561166b57600080fd5b6000612710600760003373ffffffffffffffffffffffffffffffffffffffff1673ffffffffffffffffffffffffffffffffffffffff1681526020019081526020016000205485028115156116bb57fe5b049050600160009054906101000a900473ffffffffffffffffffffffffffffffffffffffff1673ffffffffffffffffffffffffffffffffffffffff1663a9059cbb848387036040518363ffffffff167c0100000000000000000000000000000000000000000000000000000000028152600401808373ffffffffffffffffffffffffffffffffffffffff1673ffffffffffffffffffffffffffffffffffffffff16815260200182815260200192505050602060405180830381600087803b15801561178557600080fd5b505af1158015611799573d6000803e3d6000fd5b505050506040513d60208110156117af57600080fd5b8101908080519060200190929190505050507f3b42f59181130f257812e3327b330c4940f35ea5ae43ce9f3af7b570b14cb1848385838703604051808473ffffffffffffffffffffffffffffffffffffffff1673ffffffffffffffffffffffffffffffffffffffff168152602001838152602001828152602001935050505060405180910390a15092915050565b6000809054906101000a900473ffffffffffffffffffffffffffffffffffffffff1673ffffffffffffffffffffffffffffffffffffffff163373ffffffffffffffffffffffffffffffffffffffff1614151561189857600080fd5b600160009054906101000a900473ffffffffffffffffffffffffffffffffffffffff1673ffffffffffffffffffffffffffffffffffffffff1663a9059cbb6000809054906101000a900473ffffffffffffffffffffffffffffffffffffffff16836040518363ffffffff167c0100000000000000000000000000000000000000000000000000000000028152600401808373ffffffffffffffffffffffffffffffffffffffff1673ffffffffffffffffffffffffffffffffffffffff16815260200182815260200192505050602060405180830381600087803b15801561197e57600080fd5b505af1158015611992573d6000803e3d6000fd5b505050506040513d60208110156119a857600080fd5b81019080805190602001909291905050505050565b6000809054906101000a900473ffffffffffffffffffffffffffffffffffffffff1673ffffffffffffffffffffffffffffffffffffffff163373ffffffffffffffffffffffffffffffffffffffff16141515611a1857600080fd5b6000809054906101000a900473ffffffffffffffffffffffffffffffffffffffff1673ffffffffffffffffffffffffffffffffffffffff166108fc829081150290604051600060405180830381858888f19350505050158015611a7f573d6000803e3d6000fd5b5050565b600381815481101515611a9257fe5b906000526020600020016000915054906101000a900473ffffffffffffffffffffffffffffffffffffffff1681565b6000809054906101000a900473ffffffffffffffffffffffffffffffffffffffff1673ffffffffffffffffffffffffffffffffffffffff163373ffffffffffffffffffffffffffffffffffffffff16141515611b1c57600080fd5b600060038290806001815401808255809150509060018203906000526020600020016000909192909190916101000a81548173ffffffffffffffffffffffffffffffffffffffff021916908373ffffffffffffffffffffffffffffffffffffffff160217905550905060018103600660008473ffffffffffffffffffffffffffffffffffffffff1673ffffffffffffffffffffffffffffffffffffffff168152602001908152602001600020819055505050565b60008060009054906101000a900473ffffffffffffffffffffffffffffffffffffffff1673ffffffffffffffffffffffffffffffffffffffff163373ffffffffffffffffffffffffffffffffffffffff16141515611c2d57600080fd5b600160009054906101000a900473ffffffffffffffffffffffffffffffffffffffff1673ffffffffffffffffffffffffffffffffffffffff166370a082316000809054906101000a900473ffffffffffffffffffffffffffffffffffffffff166040518263ffffffff167c0100000000000000000000000000000000000000000000000000000000028152600401808273ffffffffffffffffffffffffffffffffffffffff1673ffffffffffffffffffffffffffffffffffffffff16815260200191505060206040518083038186803b158015611d0957600080fd5b505afa158015611d1d573d6000803e3d6000fd5b505050506040513d6020811015611d3357600080fd5b8101908080519060200190929190505050905090565b6000809054906101000a900473ffffffffffffffffffffffffffffffffffffffff1673ffffffffffffffffffffffffffffffffffffffff163373ffffffffffffffffffffffffffffffffffffffff16141515611da457600080fd5b81600760008573ffffffffffffffffffffffffffffffffffffffff1673ffffffffffffffffffffffffffffffffffffffff1681526020019081526020016000208190555080600860008573ffffffffffffffffffffffffffffffffffffffff1673ffffffffffffffffffffffffffffffffffffffff16815260200190815260200160002081905550505050565b6000809054906101000a900473ffffffffffffffffffffffffffffffffffffffff1673ffffffffffffffffffffffffffffffffffffffff163373ffffffffffffffffffffffffffffffffffffffff16141515611e8c57600080fd5b600060048290806001815401808255809150509060018203906000526020600020016000909192909190916101000a81548173ffffffffffffffffffffffffffffffffffffffff021916908373ffffffffffffffffffffffffffffffffffffffff160217905550905060018103600560008473ffffffffffffffffffffffffffffffffffffffff1673ffffffffffffffffffffffffffffffffffffffff168152602001908152602001600020819055505050565b6000809054906101000a900473ffffffffffffffffffffffffffffffffffffffff1673ffffffffffffffffffffffffffffffffffffffff163373ffffffffffffffffffffffffffffffffffffffff16141515611f9b57600080fd5b600073ffffffffffffffffffffffffffffffffffffffff168173ffffffffffffffffffffffffffffffffffffffff1614151515611fd757600080fd5b7f8be0079c531659141344cd1fd0a4f28419497f9722a3daafe3b4186f6b6457e06000809054906101000a900473ffffffffffffffffffffffffffffffffffffffff1682604051808373ffffffffffffffffffffffffffffffffffffffff1673ffffffffffffffffffffffffffffffffffffffff1681526020018273ffffffffffffffffffffffffffffffffffffffff1673ffffffffffffffffffffffffffffffffffffffff1681526020019250505060405180910390a1806000806101000a81548173ffffffffffffffffffffffffffffffffffffffff021916908373ffffffffffffffffffffffffffffffffffffffff16021790555050565b60008260008373ffffffffffffffffffffffffffffffffffffffff1673ffffffffffffffffffffffffffffffffffffffff1681526020019081526020016000205411151561211f57600080fd5b60008260008373ffffffffffffffffffffffffffffffffffffffff1673ffffffffffffffffffffffffffffffffffffffff1681526020019081526020016000205490506001848054905011156122815783600185805490500381548110151561218457fe5b9060005260206000200160009054906101000a900473ffffffffffffffffffffffffffffffffffffffff1684828154811015156121bd57fe5b9060005260206000200160006101000a81548173ffffffffffffffffffffffffffffffffffffffff021916908373ffffffffffffffffffffffffffffffffffffffff16021790555080836000868481548110151561221757fe5b9060005260206000200160009054906101000a900473ffffffffffffffffffffffffffffffffffffffff1673ffffffffffffffffffffffffffffffffffffffff1673ffffffffffffffffffffffffffffffffffffffff168152602001908152602001600020819055505b8260008373ffffffffffffffffffffffffffffffffffffffff1673ffffffffffffffffffffffffffffffffffffffff16815260200190815260200160002060009055838054809190600190036122d791906122de565b5050505050565b81548183558181111561230557818360005260206000209182019101612304919061230a565b5b505050565b61232c91905b80821115612328576000816000905550600101612310565b5090565b9056fea165627a7a72305820f47b3811142b47c84d6e4706c011da452620580629454a51caf44ae3ab001e840029",
  "source": "// FIXME Fix the Solidity version\npragma solidity ^0.5.0;\n\nimport \"./IERC20.sol\";\nimport \"./UniswapExchangeInterface.sol\";\n\n\ncontract Atola {\n    address payable internal owner;\n    IERC20 internal basetoken; // 0xb4272071ecadd69d933adcd19ca99fe80664fc08 for xCHF\n    address internal baseexchange; // 0x8de0d002dc83478f479dc31f76cb0a8aa7ccea17 for xCHF\n    address[] public supportedTokensArr;\n    address[] public machineAddressesArr;\n\n    mapping(address => uint256) internal machineAddresses; // maps to index of machineAddressesArr\n    mapping(address => uint256) internal supportedTokens; // maps to index of supportedTokensArr\n    mapping(address => uint256) internal buyFee; //(eg 1.2 percent -> 120)\n    mapping(address => uint256) internal sellFee; //(eg 1.2 percent -> 120)\n\n    event OwnershipTransferred(address previousOwner, address payable newOwner);\n\n    // TO-DO check which fields we need in the event log and whether we can have addresses as indexed\n    event CryptoPurchase(address customerAddress, uint256 fiatAmount, uint256 cryptoAmount);\n    event CryptoSale(address customerAddress, uint256 cryptoAmount, uint256 fiatAmount);\n    event Refund(address customerAddress, uint256 cryptoAmount);\n    event EthRecieved(address customerAddress, uint256 cryptoAmount);\n\n    /// uint256 dailyOutLimit = 5.1234567891012131 ether; /* Ether */\n\n    mapping(address => uint256) internal customerBalance;\n\n    /**\n     * @dev The Atola constructor sets the original `owner` of the contract to the sender\n     * account.\n    */\n    constructor(address _baseCurrency, address _baseExchange) public {\n        owner = msg.sender;\n        basetoken = IERC20(_baseCurrency);\n        baseexchange = _baseExchange;\n    }\n\n    /**\n     * @dev Throws if called by any account other than the owner.\n    */\n    modifier onlyOwner() {\n        require(msg.sender == owner);\n        _;\n    }\n\n    /**\n     * @dev Throws if called by any account other than thoses in the machineAddresses list\n    */\n    modifier onlyBtm() {\n        require(machineAddresses[msg.sender]>0);\n        _;\n    }\n\n    function removeMachineFromArrayAndMapping(address _machineToDelete) internal {\n      require(machineAddresses[_machineToDelete] > 0);\n      uint index = machineAddresses[_machineToDelete];\n\n      if (machineAddressesArr.length > 1) {\n        machineAddressesArr[index] = machineAddressesArr[machineAddressesArr.length-1];\n        machineAddresses[machineAddressesArr[index]] = index; // as we moved last element to index, we should update the mapping to reflect this\n      }\n      delete machineAddresses[_machineToDelete];\n      machineAddressesArr.length--; // Implicitly recovers gas from last element storage\n    }\n\n    function removeTokenFromArrayAndMapping(address _tokenToDelete) internal {\n      require(supportedTokens[_tokenToDelete] > 0);\n      uint index = supportedTokens[_tokenToDelete];\n\n      if (supportedTokensArr.length > 1) {\n        supportedTokensArr[index] = supportedTokensArr[supportedTokensArr.length-1];\n        supportedTokens[supportedTokensArr[index]] = index; // as we moved last element to index, we should update the mapping to reflect this\n      }\n      delete supportedTokens[_tokenToDelete];\n      supportedTokensArr.length--; // Implicitly recovers gas from last element storage\n    }\n\n    // ideally should do the following to avoid having the two functions above, included for testing\n    function removeItemFromArrayAndMapping(address[] storage array, mapping (address => uint256) storage itemMapping, address _itemToDelete) internal {\n      require(itemMapping[_itemToDelete] > 0);\n      uint index = itemMapping[_itemToDelete];\n\n      if (array.length > 1) {\n        array[index] = array[array.length-1];\n        itemMapping[array[index]] = index; // as we moved last element to index, we should update the mapping to reflect this\n      }\n      delete itemMapping[_itemToDelete];\n      array.length--; // Implicitly recovers gas from last element storage\n    }\n\n    /**\n     * @dev Allows the current owner to transfer control of the contract to a newOwner.\n     * @param newOwner The address to transfer ownership to.\n    */\n    function transferOwnership(address payable newOwner) external onlyOwner {\n        require(newOwner != address(0));\n        emit OwnershipTransferred(owner, newOwner);\n        owner = newOwner;\n    }\n\n    /**\n     * @dev Allows the owner to add a trusted BTM address\n     * @param _machineAddress The address of the BTM\n    */\n    function addMachine(address _machineAddress) external onlyOwner {\n        uint256 len = machineAddressesArr.push(_machineAddress);\n        machineAddresses[_machineAddress] = len - 1;\n    }\n\n    /**\n     * @dev Allows the owner to remove a trusted BTM address\n     * @param _machineAddress The address of the BTM\n    */\n    function removeMachine(address _machineAddress) external onlyOwner {\n        //removeMachineFromArrayAndMapping(_machineAddress);\n        removeItemFromArrayAndMapping(machineAddressesArr, machineAddresses, _machineAddress);\n    }\n\n    /**\n     * @dev Get the info of machine by index\n     *\n    */\n    function getMachine(uint256 _index) public view returns (address, uint256, uint256) {\n      address machine = machineAddressesArr[_index];\n      return (\n        machine,\n        buyFee[machine],\n        sellFee[machine]\n      );\n    }\n\n\n    /**\n     * @dev Allows the owner to add/remove a trusted BTM address\n     * @param _machineAddress The address of the BTM\n     * @param _buyFee Default buy fee on this machine\n     * @param _sellFee Default sell fee on this machine\n    */\n    function modifyBtm(address _machineAddress, uint256 _buyFee, uint256 _sellFee) external onlyOwner {\n        buyFee[_machineAddress] = _buyFee;\n        sellFee[_machineAddress] = _sellFee;\n    }\n\n    /**\n     * @dev Allows the owner to add a trusted token address\n     * @param _token The address of the token contract (warning: make sure it's compliant)\n    */\n    function addToken(address _token) external onlyOwner {\n      uint256 len = supportedTokensArr.push(_token);\n      supportedTokens[_token] = len - 1;\n    }\n\n    /**\n     * @dev Allows the owner to remove a supported token\n     * @param _tokenAddress The address of the token contract\n    */\n    function removeToken(address _tokenAddress) external onlyOwner {\n        removeItemFromArrayAndMapping(supportedTokensArr, supportedTokens, _tokenAddress);\n    }\n\n    /**\n     * @dev Allows the machine to submit a fiat -> eth order\n     * @param _amountFiat Amount of fiat machine reports to have recieved (18 decimal places)\n     * @param _userAddress Users crypto address\n    */\n    function fiatToEth(uint256 _amountFiat, uint256 _tolerance, address _userAddress) external onlyBtm returns (bool) {\n        require(buyFee[msg.sender] < 10000); // i'm not sure this is a good enough check, if it is we only need to do it once when setting fee\n        uint256 fee = (_amountFiat * buyFee[msg.sender]) / 10000;\n\n        //call approve\n        basetoken.approve(baseexchange, _amountFiat - fee);\n\n        //call uniswap\n        UniswapExchangeInterface ex = UniswapExchangeInterface(baseexchange);\n        uint256 ethBought = ex.tokenToEthTransferInput(_amountFiat - fee, _tolerance, block.timestamp, _userAddress);\n\n        emit CryptoPurchase(_userAddress, _amountFiat, ethBought);\n    }\n\n\n    /**\n     * @dev Allows the machine to submit a fiat -> basetoken order\n     * @param _amountFiat Amount of fiat machine reports to have recieved (18 decimal places)\n     * @param _userAddress Users crypto address\n    */\n    function fiatToBaseTokens(uint256 _amountFiat, address payable _userAddress) external onlyBtm returns (bool) {\n        require(buyFee[msg.sender] < 10000); // i'm not sure this is a good enough check, if it is we only need to do it once when setting fee\n        uint256 fee = (_amountFiat * buyFee[msg.sender]) / 10000;\n\n        //call transfer\n        basetoken.transfer(address(_userAddress), _amountFiat - fee);\n\n        emit CryptoPurchase(_userAddress, _amountFiat, _amountFiat - fee);\n    }\n\n    // Owner Functions\n\n    /**\n     * @dev Allows the owner to withdraw eth from the contract to the owner address\n     * @param _amount Amount of of eth to withdraw (in wei)\n    */\n    function withdrawEth(uint256 _amount) external onlyOwner {\n        owner.transfer(_amount);\n    }\n\n    /**\n     * @dev Allows the owner to withdraw tokens from the contract to the owner address\n     * @param _amount Amount of of tokens to withdraw (in wei)\n    */\n    function withdrawBaseTokens(uint256 _amount) external onlyOwner {\n        basetoken.transfer(owner, _amount);\n    }\n\n    /**\n     * @dev Allows the owner to withdraw tokens from the contract to the owner address\n     * @param token Token contract address\n     * @param _amount Amount of of tokens to withdraw (in wei)\n    */\n    function withdrawTokens(address token, uint256 _amount) external onlyOwner {\n        IERC20 withdrawtoken = IERC20(token);\n        withdrawtoken.transfer(owner, _amount);\n    }\n\n    /**\n     * @dev Allows owner to lookup token balance of contract\n    */\n    function tokenBalanceAmount() external view onlyOwner returns (uint256) {\n        return basetoken.balanceOf(owner);\n    }\n\n    /**\n     * @dev Allows owner to lookup eth balance of contract\n    */\n    function ethBalanceAmount() external view onlyOwner returns (uint256) {\n        return (address(this).balance);\n    }\n\n    /**\n     * @dev Allows customer to claim refund if order hasn't been processed (TO-DO add a delay to this to avoid double spend race)\n     * @param _user Customer address\n     * @param _amount Refund amount\n    */\n    function refund(address payable _user, uint256 _amount) public {\n        require(msg.sender == _user);\n        require(customerBalance[_user] > _amount);\n        customerBalance[_user] -= _amount;\n        _user.transfer(customerBalance[_user]);\n        emit Refund(_user, _amount);\n    }\n\n    /**\n     * @dev Allows customer to sell eth (needs to have already sent eth to the contract).  Called by the machine.\n     * @param _user Customer address\n     * @param _amountFiat Amount to process\n    */\n    function ethToFiat(address payable _user, uint256 _amountFiat) public onlyBtm {\n\n        require(sellFee[msg.sender] < 10000); // i'm not sure if this is a good enough check, if it is we only need to do it once when setting fee\n        uint256 fee = (_amountFiat * sellFee[msg.sender]) / 10000;\n        //call uniswap\n        UniswapExchangeInterface ex = UniswapExchangeInterface(baseexchange);\n\n        uint256 ethSold = ex.ethToTokenTransferOutput.value(customerBalance[_user])(_amountFiat + fee, block.timestamp, _user);\n\n        customerBalance[_user] -= ethSold;\n\n        // Send change to the user (the alternative is for the change to be processed on a seperate contract call :/)\n        _user.transfer(customerBalance[_user]);\n\n        emit CryptoSale(_user, ethSold, _amountFiat);\n    }\n\n    /**\n     * @dev Shows the amount of ETH from customer pending sale\n     * @param _user Customer crypto address\n    */\n    function amountForAddress(address _user) public view onlyBtm returns (uint256) {\n        return (customerBalance[_user]);\n    }\n\n    /**\n     * @dev Fallback payable function.  When customer send eth to the contract take note so we can use it to process a transaction.\n    */\n    function() external payable {\n        customerBalance[msg.sender] += msg.value;\n        emit EthRecieved(msg.sender, msg.value);\n    }\n}\n",
  "sourcePath": "/Users/vilsbole/Developer/swapBox/contracts/contracts/Atola.sol",
  "compiler": {
    "name": "solc",
    "version": "0.5.0+commit.1d4f565a.Emscripten.clang"
  },
  "schemaVersion": "3.0.6",
  "updatedAt": "2019-04-11T15:03:27.458Z",
  "devdoc": {
    "methods": {
      "addMachine(address)": {
        "details": "Allows the owner to add a trusted BTM address",
        "params": {
          "_machineAddress": "The address of the BTM"
        }
      },
      "addToken(address)": {
        "details": "Allows the owner to add a trusted token address",
        "params": {
          "_token": "The address of the token contract (warning: make sure it's compliant)"
        }
      },
      "amountForAddress(address)": {
        "details": "Shows the amount of ETH from customer pending sale",
        "params": {
          "_user": "Customer crypto address"
        }
      },
      "constructor": {
        "details": "The Atola constructor sets the original `owner` of the contract to the sender account."
      },
      "ethBalanceAmount()": {
        "details": "Allows owner to lookup eth balance of contract"
      },
      "ethToFiat(address,uint256)": {
        "details": "Allows customer to sell eth (needs to have already sent eth to the contract).  Called by the machine.",
        "params": {
          "_amountFiat": "Amount to process",
          "_user": "Customer address"
        }
      },
      "fiatToBaseTokens(uint256,address)": {
        "details": "Allows the machine to submit a fiat -> basetoken order",
        "params": {
          "_amountFiat": "Amount of fiat machine reports to have recieved (18 decimal places)",
          "_userAddress": "Users crypto address"
        }
      },
      "fiatToEth(uint256,uint256,address)": {
        "details": "Allows the machine to submit a fiat -> eth order",
        "params": {
          "_amountFiat": "Amount of fiat machine reports to have recieved (18 decimal places)",
          "_userAddress": "Users crypto address"
        }
      },
      "getMachine(uint256)": {
        "details": "Get the info of machine by index    "
      },
      "modifyBtm(address,uint256,uint256)": {
        "details": "Allows the owner to add/remove a trusted BTM address",
        "params": {
          "_buyFee": "Default buy fee on this machine",
          "_machineAddress": "The address of the BTM",
          "_sellFee": "Default sell fee on this machine"
        }
      },
      "refund(address,uint256)": {
        "details": "Allows customer to claim refund if order hasn't been processed (TO-DO add a delay to this to avoid double spend race)",
        "params": {
          "_amount": "Refund amount",
          "_user": "Customer address"
        }
      },
      "removeMachine(address)": {
        "details": "Allows the owner to remove a trusted BTM address",
        "params": {
          "_machineAddress": "The address of the BTM"
        }
      },
      "removeToken(address)": {
        "details": "Allows the owner to remove a supported token",
        "params": {
          "_tokenAddress": "The address of the token contract"
        }
      },
      "tokenBalanceAmount()": {
        "details": "Allows owner to lookup token balance of contract"
      },
      "transferOwnership(address)": {
        "details": "Allows the current owner to transfer control of the contract to a newOwner.",
        "params": {
          "newOwner": "The address to transfer ownership to."
        }
      },
      "withdrawBaseTokens(uint256)": {
        "details": "Allows the owner to withdraw tokens from the contract to the owner address",
        "params": {
          "_amount": "Amount of of tokens to withdraw (in wei)"
        }
      },
      "withdrawEth(uint256)": {
        "details": "Allows the owner to withdraw eth from the contract to the owner address",
        "params": {
          "_amount": "Amount of of eth to withdraw (in wei)"
        }
      },
      "withdrawTokens(address,uint256)": {
        "details": "Allows the owner to withdraw tokens from the contract to the owner address",
        "params": {
          "_amount": "Amount of of tokens to withdraw (in wei)",
          "token": "Token contract address"
        }
      }
    }
  },
  "userdoc": {
    "methods": {}
  }
}